:020000040000FA
:1000000058020020F100000017010000D500000098
:1000100000000000000000000000000000000000E0
:100020000000000000000000000000001B010000B4
:1000300000000000000000001D0100001F01000082
:100040002101000021010000210100002101000028
:100050002101000021010000210100002101000018
:1000600021010000D50A000021010000210100004B
:10007000010B00002101000021010000210100000E
:1000800021010000210100002101000021010000E8
:1000900021010000210100002101000021010000D8
:1000A00021010000210100002101000021010000C8
:1000B00021010000210100002101000021010000B8
:1000C0000348854600F0AEF800480047D518000008
:1000D0005802002004207146084202D0EFF3098044
:1000E00001E0EFF308807146004A1047390500002F
:1000F0000C480D4901600D4901600D4901600D4A30
:100100000D4911600D4A0E491160002101600D4832
:1001100080470D480047FEE7FEE7FEE7FEE7FEE703
:10012000FEE700000001004059000000160000003A
:100130008800000024000040A55A00008002004012
:100140000100000025090000C100000030B50B4689
:10015000014600202022012409E00D46D5409D42A1
:1001600005D31D469540491B254695404019154627
:10017000521E002DF1DC30BD70B50024254600284C
:1001800001DA01244042002901DA01254942FFF742
:10019000DDFFAC4200D04042002C00D0494270BD8F
:1001A00003460B439B0703D009E008C9121F08C090
:1001B000042AFAD203E00B780370401C491C521E3B
:1001C000F9D27047F0B51FB40646002082B005464C
:1001D0004024019100901BE0019922460F463046D1
:1001E00000F042F8049A059B801A994110D31046FA
:1001F0001946224600F028F8361A8F410197224608
:1002000001200021009F00F01FF838184D41009098
:100210002046641E0028DFDC019B009829463246F8
:1002200007B0F0BD064C0125064E05E0E36807CC9B
:100230002B430C3C98471034B442F7D3FFF744FFEC
:100240000C2500002C25000010B5202A04DB0146F7
:10025000203A9140002010BD914020239C1A034673
:10026000E3401943904010BD10B5202A04DB084636
:10027000203AD040002110BD0B46D340D04020246E
:10028000A21A91400843194610BD00000EB5094955
:100290000EC900910192810F8A00029369468A5823
:1002A000054951184A68C306DB0E012098400243F5
:1002B0004A600EBD901B00000002004002490A681F
:1002C00002430A60704700000002004010B500F0D1
:1002D000DFFA0148006810BD0000002010B5114C85
:1002E000002021694907490F08D0012908D00229B7
:1002F00009D003290AD007290BD00BE00A4809E0EE
:100300000120C00306E000F049F803E04B20400262
:1003100000E00648216A0907090F491CFFF716FF8C
:1003200010BD0000000200400048E801006CDC0243
:1003300002480068C00700D0014870470002004032
:100340000048E80104480068800702D50120C00386
:1003500070470020704700000002004010B500F018
:1003600097FA0448406B41070348490F0068C840AA
:1003700010BD0000000200400000002010B500F099
:1003800087FA0448406B4006410F03480068C840A4
:1003900010BD0000000200400000002008B511A0C0
:1003A00000681149009009680020052212041142DA
:1003B00016D1080301D50D4800E00D488A030FD47B
:1003C0000A04920F6B469B5CCA058904D20DC90EC4
:1003D000891C8008921C59435043FFF7B7FE8000E8
:1003E00008BD00000102020440020040001BB700EB
:1003F0000048E80108B511A000681149009009689B
:10040000002005221204114216D1080301D50D481F
:1004100000E00D488A030FD40A04920F6B469B5CE0
:10042000CA058904D20DC90E891C8008921C594343
:100430005043FFF78BFE800008BD0000010202045C
:1004400040020040001BB7000048E801F3B5124825
:1004500081B005690F4610200F4C0540403C2068D4
:10046000042630432060102000F050F82069072156
:1004700008432061206A0009000138432062206996
:10048000884301990843206100F002FA002D02D14F
:100490002068B0432060FEBD40020040F0B5194B1B
:1004A00088B0F0CB009401ACE0C478CB04AF78C73F
:1004B000840A23061B0E0ED003039B0F9B0004AD82
:1004C000EB58114D5B19E5B28405E40EA5401C689C
:1004D000AC4314431C60420E520710D08200920FAE
:1004E00092006B469A58084B103BD21803015B0FE1
:1004F000C001C00E8340106898430843106008B0E4
:10050000F0BD0000701B00002002004010B5044642
:100510000749084B05E00A46491E002A01DC002075
:1005200010BD1A6920469043F5D1012010BD00008E
:1005300080F5200040020040044603A000F016FCB5
:10054000204601F0B1FAFEE7496E2048617264204E
:100550004661756C742048616E646C65720A0000B7
:1005600010B583680D24A34311430B4308210B43AB
:10057000836010BDFFB5044681B040480A9D1E4609
:10058000844202D0002005B0F0BD206E400840003B
:100590002066202E00D10026FFF7A0FE0746029914
:1005A000012200233648002915D0A360029D3102A4
:1005B0002943039D294311432160636004468069F8
:1005C000302188432030A061FFF788FE616B490726
:1005D000490F491C4EE00021A160039B31021943E1
:1005E00011432160BD4204D38169302291432031FF
:1005F000816181698906890F12D081698906890F15
:1006000001290FD081698906890F02290DD01D4E5D
:10061000BD4201D2B54211D3002060603046B2E73E
:10062000194EF5E7FFF7BAFE06E0406B4107490FA8
:100630003846491CFFF78AFD0646E9E7134F002DAF
:100640000CD030460A2148432946FFF77FFD0A2196
:10065000401DFFF77BFD401EFF2804D9606838432A
:100660006060300A8FE76168490A490201436160AE
:10067000411C3046FFF76AFD85E700000010064088
:1006800000020040006CDC020048E801FF010000AD
:1006900070B55920264C16228821206022602160E6
:1006A0002368002BF9D00420FFF708FE1020FFF785
:1006B0002DFF00210720FFF7C9FE1E4D2846FFF73A
:1006C000E5FD0321002209062846FFF7E7FEAD06F7
:1006D000E86BFF2109048843332149044018E8638B
:1006E000154E3046FFF7D2FD0721002209023046A1
:1006F000FFF7D4FE114E3046FFF7C8FD0022691403
:100700003046FFF7CBFE0E4E002220213046FFF789
:10071000C5FE3046FFF7BAFD286B0A49000C0004FD
:100720004018286300F0B4F80020206070BD00007D
:1007300000010040103D805F0200805E0300C05E4B
:100740000D004066444400000121020E8907511843
:100750008B680122824013438B60886890438860D5
:100760007047000006498A691202FCD408600A2812
:1007700004D188690002FCD40D2008607047000095
:10078000000007407FB54048404D01784089420055
:100790008418601907294CD007DC0B0000F0F6FA2A
:1007A000071123282D34393D110032295DD009DC91
:1007B000082945D009294CD0312902D10A2000F05E
:1007C000ADFD7FBD332958D03429FAD181784378E3
:1007D0002A5D6E460EC603911021480100F05EFEB0
:1007E00001F004F97FBD322000F0CAFF302039E06B
:1007F0000A21022000F0E0FF7FBD83784278295D66
:100800001E2001F002F8EBE7012001F02BF8F020A8
:1008100028E03C2000F06EFF7FBD817843782A5DA0
:100820006E460EC603917D208021400200F098FDA7
:10083000D6E783784278295D1E2000F067FECFE777
:100840008178009143782A5D0A21322000F025FF4B
:10085000C6E73C2000F0F8FD00221146104601F0EA
:10086000E1F8782000F04AFD7FBD83784278E120EE
:10087000295D800000F078FEB2E783784278295D38
:100880001E2000F0C4FDABE710000020101C00008B
:10089000F8B51D4D28691C4944071CA0006800904C
:1008A000640F00204031096805221204114216D15C
:1008B000080301D5164800E016488A030FD40A043D
:1008C000920F6B469B5CCA058904D20DC90E891C28
:1008D0008008921C59435043FFF738FC80000E4EAD
:1008E000022CB06002D00D49A0000858296A0907FF
:1008F000090F491CFFF72AFC094930604A1080188B
:10090000FFF724FC7060F8BD000200400102020401
:10091000001BB7000048E80100000020501B000049
:1009200040420F0010B559210A4816238822016061
:10093000036002600468002CF9D007490B680722A5
:10094000120593430B600B6813430B600021016099
:1009500010BD0000000100400002004010B50A4C2C
:100960007D220121D200C906204600F093F82068BC
:10097000210608432060081504490860206889059D
:100980000843206010BD00002000054000E100E0A9
:10099000F8B50C46064600F045F8014600901E48A2
:1009A00000270068FFF7D2FB451C00203060706113
:1009B0001A490098884205D87D20C000844205D29B
:1009C000044606E0642C01D2642402E08C4200D983
:1009D0000C460098884208D801461148FFF7B6FB3C
:1009E00001467D20C000604305E0FFF7AFFB604398
:1009F000070E02D0791CFFF7A9FB70600120800769
:100A000007433760002D02D000BF6D1EFCD1306857
:100A10008001FCD4F8BD00000000002040420F001F
:100A200000CA9A3B10B588B0044620221549684692
:100A3000FFF7B6FB144B144A14482033944202D1FA
:100A40004069000A0BE09C4202D14069000B06E0BD
:100A50000F4940698C4201D1000C00E0000D4107B4
:100A6000490F022904D088006946085808B010BD13
:100A7000944201D09C4202D1FFF770FCF6E7FFF7E9
:100A80007DFCF3E7A81B00000000054000020040C9
:100A900000100540F7B517460646FFF7C3FF0546A9
:100AA00000244008B84201D8022008E03946284610
:100AB000FFF74CFB040E02D0611CFFF747FB0199C6
:100AC000214331607060641C604301462846FFF793
:100AD0003DFBFEBD08498868C007C00F0BD0012050
:100AE000886006498889421C8A817D22D200904212
:100AF00001D30020888170472000054010000020AD
:100B000010B50B4CE06911210902084202D104E042
:100B100000F0B6F8A1694904FAD5A169204671220E
:100B2000114203D00921890200F004F810BD000031
:100B300000000740CA0102D501221204C2614A0521
:100B400003D570228261082282610A0503D54269B9
:100B500001231A4342618A0401D5034A8261490490
:100B600001D51F21416470470100000142680A431A
:100B70004260074B012212030649984201D10A60E4
:100B80007047054B9842FAD1012040030860704736
:100B90000000074000E100E000100740F0B587B01A
:100BA0000F46044600252E4618222E496846FFF7B8
:100BB000F7FA2D492D482E4A8C4205D14369006A27
:100BC0005B015D0F000A0FE02A4B9C4206D143698E
:100BD000006A5B005D0F0004060F07E0944205D138
:100BE000C369006B5B015D0F0607360F00202063B1
:100BF0000320E060A068204B1840A060012D02D0C7
:100C0000042D04D00DE0FFF7F5FB019009E08C42C4
:100C100001D0944202D1FFF7A1FB01E0FFF7AEFB48
:100C20000490002F1BD0A90068464058711CFFF7A4
:100C30008DFA0546790840183946FFF787FA0F49BB
:100C4000801E884207D9F90068183946FFF77EFAF6
:100C50000009801E02E0032109070843606207B013
:100C6000F0BD0000C81B000000000740000200406B
:100C700000200740001007400FFFF0FFFFFF0000BB
:100C800010B50F480068C0B2782807D0582805D0A2
:100C90007F280CD90BA000F069F810BDBFF34F8F6F
:100CA0000E490D48C860BFF34F8F00BFFDE73038D5
:100CB000C1B20B4801700BA000F058F810BD000045
:100CC00000000740696E76616C696420636F6D6D2A
:100CD000616E640D0A0000000400FA0500ED00E0FA
:100CE0001000002044656D6F5374617465203D20D1
:100CF0002532640D0A00000003484169C903FCD590
:100D0000C02101627047000000100640034841699D
:100D1000C903FCD5FC2101627047000000100640A9
:100D200038B50748074C00900823042200212046CC
:100D3000FFF720FC002201212046FFF711FC38BDFF
:100D4000C0CF6A000010064000B503460022180616
:100D500002D5FFF7DBFF01E0FFF7CEFF5806521C7C
:100D6000030ED2B2082AF2D300BD00000FB410B5B2
:100D700003A9044B044A029800F024F810BC08BCF4
:100D800004B01847111300000C00002030B4744662
:100D9000641E2578641CAB4200D21D46635D5B0077
:100DA000E31830BC184702E008C8121F08C1002A27
:100DB000FAD170477047002001E001C1121F002ADC
:100DC000FBD17047FFB591B00F460546002606E0FF
:100DD00025280AD0149A139990476D1C761C287800
:100DE0000028F5D1304615B0F0BD00240094012153
:100DF000F34A029400E004436D1C2B780846203B24
:100E000098401042F7D128782A280ED0022128785D
:100E10000246303A092A15D8009A0A235A43303A32
:100E200080180C436D1C0090F1E701CF0090002862
:100E300005DA01204003044300984042009002205C
:100E400004436D1C28782E2815D1042004436878AB
:100E50006D1C2A280AD101CF6D1C02900BE002996B
:100E60000A225143303940186D1C029028780146FF
:100E700030390929F3D928786C2810D006DC4C28A1
:100E80001AD068280ED06A2817D104E0742813D02D
:100E90007A2812D110E00120400504430CE0012122
:100EA000090501E0032109050C436978814203D15A
:100EB0000120000524186D1C6D1C287803906E28F5
:100EC0001ED00CDC632831D004DC00288AD05828DE
:100ED00011D1B2E064287BD069280CD178E0732866
:100EE0002DD004DC6F2870D0702804D1A7E07528BD
:100EF0006CD078286BD0149A13999047761C62E0D6
:100F00006002400F022807D003280AD0042838685E
:100F10000AD006603F1D56E03868F1170660416050
:100F2000F8E738680680F5E70670F3E73878694631
:100F300008740020487404A80390012003E0386876
:100F400003900020C0433F1D61070FD5002101E041
:100F50000199491C029A0191914213DA8142F7DB0F
:100F6000019A0399895C0029F2D10BE0002101E08C
:100F70000199491C01918142FADB019A0399895C2C
:100F80000029F5D101990098139A401A0090214642
:100F9000149B00F03BF901998019461807E003986B
:100FA00003990078491C0391149A1399904701986A
:100FB000401E0190401CF2D12146149B139A0098C8
:100FC00000F014F986196D1C09E741E033E034E0C4
:100FD0000A200021049005916002410F022905D0EA
:100FE00001CFC2179446032905D007E0FF1DFF0873
:100FF000FF0003CF06E000B2C2179446042902D1D5
:1010000040B2C1178C4600226146944506DA0A4672
:101010000021404291418C462D2102E0210504D55A
:101020002B216A461176012103E0E10701D020213E
:10103000F7E7019154E00A200BE0102009E01020AE
:10104000049000210420044308200591029003E04D
:1010500008200021059104906002410F022905D06B
:1010600001CF00229446032906D006E0FF1DFF08A9
:10107000FF0003CF8C4603E080B2042900D1C0B248
:101080000021019121072BD50399702906D0049ADC
:101090001021059B4A401A4305D00EE040216A46C4
:1010A0001176012108E06146014306D030216A46ED
:1010B00011760399517602210191049A0821059B2A
:1010C0004A401A430CD16146014301D1610707D55B
:1010D00030216A461176012101910299491E02913F
:1010E0000399582904D037A103910FA90F910DE05E
:1010F00039A1F9E76146059B049AFFF763F8039B62
:101100008C469B5C0F9A521E0F92137061460143EE
:10111000F0D10F9807A9081A20300390600704D572
:10112000012000048443029801E001200290039909
:10113000884201DD401A00E0002041180290019829
:1011400009180098401A0090E00306D42146149B29
:10115000139A009800F05AF886190020049008E0CD
:1011600006A9085C149A139990470498401C761CB1
:10117000049001998842F3DBE0030CD52146149BCF
:10118000139A009800F042F8861904E0149A30206F
:1011900013999047761C0299481E02900029F5DCAD
:1011A00008E00F980F990078491C0F91149A139931
:1011B0009047761C0399481E03900029F1DCFBE65A
:1011C000092801003031323334353637383961621D
:1011D00063646566000000003031323334353637E1
:1011E000383941424344454600000000F8B5044602
:1011F00000251E461746880404D405E03946202001
:10120000B0476D1C641EF9D52846F8BDFFB50446ED
:10121000002581B01E46C80301D5302700E02027F5
:10122000880404D505E038460399B0476D1C641E58
:10123000F9D5284605B0F0BDF7B51F4A13465779D2
:10124000DE789D781C793B00FFF7A0FD06040B12A9
:101250001920272D761CF3B2D370FF2B23D1012345
:1012600020E06D1E2B061B0E93701CD1022319E08B
:10127000641CE3B21371FF2B15D1032312E0761E19
:1012800033061B0ED3700ED104230BE06D1CEBB2A2
:101290009370FF2B07D1052304E0641E23061B0E69
:1012A000137100D15371D3780B709178017002984B
:1012B00011790170FEBD00001000002070B5FF2400
:1012C000201A0025552805D2157042008018221AD0
:1012D0000A7007E0AA2807D2553846008019107016
:1012E0000D70201A187006E0AA3846008019241ADA
:1012F000147008701D70002070BD00007D21C900B1
:1013000010B541430148FFF743FB10BD0000054005
:1013100010B50446FFF726FA204610BDF1B50025AA
:1013200068002F180C4800243E180B48B378C15DA4
:101330007278204600F04EFB641CE4B2122CF4D309
:10134000362000F083FB0098FFF7D8FF6D1C0348A0
:10135000ADB28542E4D3F8BD101C0000FE020000CF
:10136000FFB583B00D9817461E460024C01B0E9D86
:101370000499FEF701FF0190A81B0499FEF7FCFEFB
:1013800000900C990F98401A0499FEF7F5FE054657
:1013900019E020460C9968434018C2B20098604397
:1013A0008019C1B201986043C019C0B200F03AFB85
:1013B00004990398FEF7CAFE0146401E80B2002938
:1013C000FAD1641CA4B204988442E2D3401E84B2D1
:1013D00019E020460C9968434018C2B20098604357
:1013E0008019C1B201986043C019C0B200F01AFB65
:1013F00004990398FEF7AAFE0146401E80B2002918
:10140000FAD1641EA4B2002CE3D107B0F0BDFFB541
:1014100081B01D4616460F46002400221146104694
:1014200000F000FB2B4632463946204600F0D2FA47
:10143000362000F00BFB0198FFF760FF641CE4B25C
:10144000122CEAD305B0F0BDF1B50025114E124FB4
:101450002C462A20604340193146FEF777FEC8B279
:1014600041004018C1198B784A78395C204600F059
:10147000B1FA362000F0EAFA0098FFF73FFF2A356C
:10148000A8B23146FEF762FE641CE4B20D46122C8F
:10149000DFD3F8BDFE020000101C0000FFB583B0D2
:1014A0000D9817461E460024C01B0E9D0499FEF79A
:1014B00063FE0190A81B0499FEF75EFE00900C9954
:1014C0000F98401A0499FEF757FE054619E020468A
:1014D0000C9968434018C2B2009860438019C1B2A9
:1014E00001986043C019C0B200F09CFA04990398B7
:1014F000FEF72CFE0146401E80B20029FAD1641C82
:10150000A4B204988442E2D307B0F0BDFFB5002432
:1015100016460F4681B01D4622462146204600F061
:1015200081FA2B4632463946204600F053FA3620DF
:1015300000F08CFA0198FFF7E1FE641CE4B2122C73
:10154000EFD3002400231A461946204600F042FA41
:10155000362000F07BFA0198FFF7D0FE641CE4B25D
:10156000122CEFD305B0F0BDFFB585B02320CF0915
:101570000090F801D609C01BC0B20390F001801B97
:10158000C0B2DD090290E801401BC0B20022019008
:1015900000241146104600F045FA009801460F312C
:1015A0000598FEF7D3FD049020466843C2B220465A
:1015B0007043C1B220467843C0B200F033FA0498B9
:1015C0000146401E80B20029FAD1641CE4B2802C8E
:1015D000EAD3009900240A310598FEF7B7FD04907C
:1015E000204601996843081AC2B220460299704306
:1015F000081AC1B22046039B7843181AC0B200F003
:1016000011FA04980146401E80B20029FAD1641CE8
:10161000E4B2802CE4D300990024491D0598FEF71C
:1016200095FD049020466843C2B220467043C1B283
:1016300020467843C0B200F0F5F904980146401EF8
:1016400080B20029FAD1641CE4B2802CEAD30024D1
:1016500000990598FEF77AFD0090204601996843AD
:10166000081AC2B2204602997043081AC1B2204635
:10167000039B7843181AC0B200F0D4F900980146D1
:10168000401E80B20029FAD1641CE4B2802CE4D35D
:101690000598FFF733FE09B0F0BDFFB581B00F46E6
:1016A00000251220FEF752FD002206461146104684
:1016B00000F0B8F900221146104600F0B3F90024FA
:1016C0000AE0204670434019C0B20A9B049A03996D
:1016D00000F080F9641CA4B2BC42F2D3362000F0C2
:1016E000B5F90198FFF70AFE6D1CEDB2122DE1D39A
:1016F00005B0F0BDF1B521490024CA7908468079CA
:10170000002A06D0401CC0B28871FF2808D10020F2
:1017100005E0401E0006000E887101D10120C8714D
:101720000321A01CFEF712FD1448C9078579C90FD3
:101730006943CFB20321601CFEF708FDC807C00F44
:101740006843C6B203212046FEF700FDC807C00F5C
:101750006843C1B23B463246204600F03BF9362092
:1017600000F074F900980146401E80B20029FAD1B9
:10177000641CE4B2122CD3D3F8BD0000100000208A
:101780003EB50024694605460C706A4601A902A8C8
:10179000FFF752FD684603780279017A204600F08F
:1017A00019F9641CE4B2122CEFD3362000F04EF984
:1017B0002846FFF7A3FD3EBDFEB500256A460F464D
:1017C000157006021EE0002420021221FEF7BEFC66
:1017D0004019C0B26B4601AA02A9FFF76FFD694626
:1017E0000B780A79E0B2097A00F0F4F8641CA4B22C
:1017F000122CE9D3362000F029F93846FFF77EFD98
:101800006D1CADB2AE42DED8FEBDFFB581B01F4645
:101810000026002400252819C0B23B46039A0299ED
:1018200000F0D8F8ED1CADB2122DF4D3362000F044
:101830000DF90198FFF762FD002500232819C0B2B9
:101840001A46194600F0C6F8ED1CADB2122DF4D3BD
:10185000641CA4B2032CDDD3761CB6B20A2ED8D3F6
:1018600005B0F0BDFEB50026694607460E7000259E
:101870000024A019FF21FEF769FC08466B4601AA67
:1018800002A9FFF71BFD694660190B780A79C0B2FF
:10189000097A00F09FF8E41CA4B2122CE9D3362098
:1018A00000F0D4F83846FFF729FD00240023601922
:1018B000C0B21A46194600F08DF8E41CA4B2122CEE
:1018C000F4D36D1CEDB2032DD2D3761CB6B2FF2E2D
:1018D000CDD9FEBDFEF7DCFE1A48FEF735FF1A4CE7
:1018E000E12149022046FFF759F911212046FFF76F
:1018F0003DF90120154900030860FEF7E7FC0146A9
:1019000013A0FFF733FAFEF713FD014617A0FFF708
:101910002DFAFEF717FD01461AA0FFF727FAFEF78A
:101920001DFD01461DA0FFF721FAFEF727FD014628
:1019300021A0FFF71BFAFFF711F8FFF7F1F9FEF707
:1019400021FFFCE7100000040000074000E100E078
:101950000D0A434C4B5F47657443505546726571A1
:10196000203A202538640D0A00000000434C4B5FEC
:1019700047657448585446726571203A202538648A
:101980000D0A0000434C4B5F4765744C5854467237
:101990006571203A202538640D0A0000434C4B5FE6
:1019A00047657450434C4B3046726571203A202590
:1019B00038640D0A00000000434C4B5F47657450CB
:1019C000434C4B3146726571203A202538640D0A2C
:1019D0000000000010B544000019034C2254001907
:1019E0004170837010BD0000200000200B490022D0
:1019F0004B7808464089002B07D0094B984202D308
:101A00004A704B817047401C02E0002802D0401E03
:101A100048817047012048704A81704710000020BB
:101A2000FD020000F0B515460E46074600242B4681
:101A3000324639462046FFF7CDFF641CE4B2122C33
:101A4000F5D3362000F002F8F0BD000070B5002498
:101A5000204600F017F80A4E60002518705DFFF769
:101A600073F9AD196878FFF76FF9A878FFF76CF98B
:101A7000641CA4B2122CEFD3012000F003F870BD57
:101A800020000020002807D07D2000010146401ED4
:101A900080B20029FAD17047FF2091300146401EE4
:101AA00080B20029FAD1704710B50446016810A031
:101AB000FFF75CF911A06168FFF758F912A0A1685F
:101AC000FFF754F913A0E168FFF750F914A021695A
:101AD000FFF74CF915A06169FFF748F916A0A16955
:101AE000FFF744F917A0E169FFF740F910BD0000C6
:101AF000723020203D20307825780A007231202075
:101B00003D20307825780A00723220203D20307840
:101B100025780A00723320203D20307825780A008D
:101B2000723132203D20307825780A006C722020F6
:101B30003D20307825780A00706320203D203078E1
:101B400025780A00707372203D20307825780A00CD
:101B50000048E8010080000000D8B80500960000A9
:101B6000006CDC020000000000000000006CDC02E1
:101B70000000000004000000080000000C0000004D
:101B80000000000000000000000000001000000045
:101B90000000000004000000080000000000000039
:101BA00004000000080000000048E8010080000078
:101BB000000000000000000000000000009600008F
:101BC00000000000006CDC020048E801000000009A
:101BD00000800000006CDC020000000000960000A5
:101BE0000048E8010000000000800000006CDC02FA
:101BF00000000000009600000048E801000000001E
:101C000000800000006CDC02000000000096000074
:101C1000FF0000FE0100FD0200FC0300FB0400FACF
:101C20000500F90600F80700F70800F60900F50AB4
:101C300000F40B00F30C00F20D00F10E00F00F00A9
:101C4000EF1000EE1100ED1200EC1300EB1400EAAF
:101C50001500E91600E81700E71800E61900E51A74
:101C600000E41B00E31C00E21D00E11E00E01F0079
:101C7000DF2000DE2100DD2200DC2300DB2400DA8F
:101C80002500D92600D82700D72800D62900D52A34
:101C900000D42B00D32C00D22D00D12E00D02F0049
:101CA000CF3000CE3100CD3200CC3300CB3400CA6F
:101CB0003500C93600C83700C73800C63900C53AF4
:101CC00000C43B00C33C00C23D00C13E00C03F0019
:101CD000BF4000BE4100BD4200BC4300BB4400BA4F
:101CE0004500B94600B84700B74800B64900B54AB4
:101CF00000B44B00B34C00B24D00B14E00B04F00E9
:101D0000AF5000AE5100AD5200AC5300AB5400AA2E
:101D10005500A95600A85700A75800A65900A55A73
:101D200000A45B00A35C00A25D00A15E00A05F00B8
:101D30009F60009E61009D62009C63009B64009A0E
:101D40006500996600986700976800966900956A33
:101D500000946B00936C00926D00916E00906F0088
:101D60008F70008E71008D72008C73008B74008AEE
:101D70007500897600887700877800867900857AF3
:101D800000847B00837C00827D00817E00807F0058
:101D90007F80007E81007D82007C83007B84007ACE
:101DA0008500798600788700778800768900758AB3
:101DB00000748B00738C00728D00718E00708F0028
:101DC0006F90006E91006D92006C93006B94006AAE
:101DD0009500699600689700679800669900659A73
:101DE00000649B00639C00629D00619E00609F00F8
:101DF0005FA0005EA1005DA2005CA3005BA4005A8E
:101E0000A50059A60058A70057A80056A90055AA32
:101E10000054AB0053AC0052AD0051AE0050AF00C7
:101E20004FB0004EB1004DB2004CB3004BB4004A6D
:101E3000B50049B60048B70047B80046B90045BAF2
:101E40000044BB0043BC0042BD0041BE0040BF0097
:101E50003FC0003EC1003DC2003CC3003BC4003A4D
:101E6000C50039C60038C70037C80036C90035CAB2
:101E70000034CB0033CC0032CD0031CE0030CF0067
:101E80002FD0002ED1002DD2002CD3002BD4002A2D
:101E9000D50029D60028D70027D80026D90025DA72
:101EA0000024DB0023DC0022DD0021DE0020DF0037
:101EB0001FE0001EE1001DE2001CE3001BE4001A0D
:101EC000E50019E60018E70017E80016E90015EA32
:101ED0000014EB0013EC0012ED0011EE0010EF0007
:101EE0000FF0000EF1000DF2000CF3000BF4000AED
:101EF000F50009F60008F70007F80006F90005FAF2
:101F00000004FB0003FC0002FD0001FE0000FF00D6
:101F100000FE0100FD0200FC0300FB0400FA0500C6
:101F2000F90600F80700F70800F60900F50A00F4C2
:101F30000B00F30C00F20D00F10E00F00F00EF109B
:101F400000EE1100ED1200EC1300EB1400EA150096
:101F5000E91600E81700E71800E61900E51A00E4A2
:101F60001B00E31C00E21D00E11E00E01F00DF205B
:101F700000DE2100DD2200DC2300DB2400DA250066
:101F8000D92600D82700D72800D62900D52A00D482
:101F90002B00D32C00D22D00D12E00D02F00CF301B
:101FA00000CE3100CD3200CC3300CB3400CA350036
:101FB000C93600C83700C73800C63900C53A00C462
:101FC0003B00C33C00C23D00C13E00C03F00BF40DB
:101FD00000BE4100BD4200BC4300BB4400BA450006
:101FE000B94600B84700B74800B64900B54A00B442
:101FF0004B00B34C00B24D00B14E00B04F00AF509B
:1020000000AE5100AD5200AC5300AB5400AA5500D5
:10201000A95600A85700A75800A65900A55A00A421
:102020005B00A35C00A25D00A15E00A05F009F605A
:10203000009E61009D62009C63009B64009A6500A5
:10204000996600986700976800966900956A009401
:102050006B00936C00926D00916E00906F008F701A
:10206000008E71008D72008C73008B74008A750075
:10207000897600887700877800867900857A0084E1
:102080007B00837C00827D00817E00807F007F80DA
:10209000007E81007D82007C83007B84007A850045
:1020A000798600788700778800768900758A0074C1
:1020B0008B00738C00728D00718E00708F006F909A
:1020C000006E91006D92006C93006B94006A950015
:1020D000699600689700679800669900659A0064A1
:1020E0009B00639C00629D00619E00609F005FA05A
:1020F000005EA1005DA2005CA3005BA4005AA500E5
:1021000059A60058A70057A80056A90055AA005480
:10211000AB0053AC0052AD0051AE0050AF004FB019
:10212000004EB1004DB2004CB3004BB4004AB500B4
:1021300049B60048B70047B80046B90045BA004460
:10214000BB0043BC0042BD0041BE0040BF003FC0D9
:10215000003EC1003DC2003CC3003BC4003AC50084
:1021600039C60038C70037C80036C90035CA003440
:10217000CB0033CC0032CD0031CE0030CF002FD099
:10218000002ED1002DD2002CD3002BD4002AD50054
:1021900029D60028D70027D80026D90025DA002420
:1021A000DB0023DC0022DD0021DE0020DF001FE059
:1021B000001EE1001DE2001CE3001BE4001AE50024
:1021C00019E60018E70017E80016E90015EA001400
:1021D000EB0013EC0012ED0011EE0010EF000FF019
:1021E000000EF1000DF2000CF3000BF4000AF500F4
:1021F00009F60008F70007F80006F90005FA0004E0
:10220000FB0003FC0002FD0001FE0000FF0100FED8
:102210000200FD0300FC0400FB0500FA0600F907BC
:1022200000F80800F70900F60A00F50B00F40C00AE
:10223000F30D00F20E00F10F00F01000EF1100EEB0
:102240001200ED1300EC1400EB1500EA1600E9177C
:1022500000E81800E71900E61A00E51B00E41C007E
:10226000E31D00E21E00E11F00E02000DF2100DE90
:102270002200DD2300DC2400DB2500DA2600D9273C
:1022800000D82800D72900D62A00D52B00D42C004E
:10229000D32D00D22E00D12F00D03000CF3100CE70
:1022A0003200CD3300CC3400CB3500CA3600C937FC
:1022B00000C83800C73900C63A00C53B00C43C001E
:1022C000C33D00C23E00C13F00C04000BF4100BE50
:1022D0004200BD4300BC4400BB4500BA4600B947BC
:1022E00000B84800B74900B64A00B54B00B44C00EE
:1022F000B34D00B24E00B14F00B05000AF5100AE30
:102300005200AD5300AC5400AB5500AA5600A9577B
:1023100000A85800A75900A65A00A55B00A45C00BD
:10232000A35D00A25E00A15F00A060009F61009E0F
:1023300062009D63009C64009B65009A660099673B
:1023400000986800976900966A00956B00946C008D
:10235000936D00926E00916F009070008F71008EEF
:1023600072008D73008C74008B75008A76008977FB
:1023700000887800877900867A00857B00847C005D
:10238000837D00827E00817F008080007F81007ECF
:1023900082007D83007C84007B85007A86007987BB
:1023A00000788800778900768A00758B00748C002D
:1023B000738D00728E00718F007090006F91006EAF
:1023C00092006D93006C94006B95006A960069977B
:1023D00000689800679900669A00659B00649C00FD
:1023E000639D00629E00619F0060A0005FA1005E8F
:1023F000A2005DA3005CA4005BA5005AA60059A73B
:102400000058A80057A90056AA0055AB0054AC00CC
:1024100053AD0052AE0051AF0050B0004FB1004E6E
:10242000B2004DB3004CB4004BB5004AB60049B7FA
:102430000048B80047B90046BA0045BB0044BC009C
:1024400043BD0042BE0041BF0040C0003FC1003E4E
:10245000C2003DC3003CC4003BC5003AC60039C7BA
:102460000038C80037C90036CA0035CB0034CC006C
:1024700033CD0032CE0031CF0030D0002FD1002E2E
:10248000D2002DD3002CD4002BD5002AD60029D77A
:102490000028D80027D90026DA0025DB0024DC003C
:1024A00023DD0022DE0021DF0020E0001FE1001E0E
:1024B000E2001DE3001CE4001BE5001AE60019E73A
:1024C0000018E80017E90016EA0015EB0014EC000C
:1024D00013ED0012EE0011EF0010F0000FF1000EEE
:1024E000F2000DF3000CF4000BF5000AF60009F7FA
:1024F0000008F80007F90006FA0005FB0004FC00DC
:1025000003FD0002FE0001FF000000002C2500007A
:102510000000002020000000A60D00004C25000057
:102520002000002038020000B60D000000D8B805D9
:102530006000000000D8B805000000003101FF0075
:0C2540000000000001000000000000008E
:04000005000000F106
:00000001FF
